{
  "contractName": "Ownable",
  "abi": [
    {
      "inputs": [],
      "payable": false,
      "stateMutability": "nonpayable",
      "type": "constructor"
    },
    {
      "anonymous": false,
      "inputs": [
        {
          "indexed": true,
          "internalType": "address",
          "name": "sender",
          "type": "address"
        },
        {
          "indexed": true,
          "internalType": "address",
          "name": "originalAlice",
          "type": "address"
        },
        {
          "indexed": true,
          "internalType": "address",
          "name": "newAlice",
          "type": "address"
        }
      ],
      "name": "LogNewOwner",
      "type": "event"
    },
    {
      "constant": false,
      "inputs": [
        {
          "internalType": "address payable",
          "name": "_newAlice",
          "type": "address"
        }
      ],
      "name": "changeAlice",
      "outputs": [
        {
          "internalType": "bool",
          "name": "success",
          "type": "bool"
        }
      ],
      "payable": false,
      "stateMutability": "nonpayable",
      "type": "function"
    },
    {
      "constant": true,
      "inputs": [],
      "name": "getAlice",
      "outputs": [
        {
          "internalType": "address",
          "name": "",
          "type": "address"
        }
      ],
      "payable": false,
      "stateMutability": "view",
      "type": "function"
    }
  ],
  "bytecode": "0x608060405234801561001057600080fd5b50336000806101000a81548173ffffffffffffffffffffffffffffffffffffffff021916908373ffffffffffffffffffffffffffffffffffffffff1602179055506103a0806100606000396000f3fe608060405234801561001057600080fd5b50600436106100365760003560e01c8063bd1144881461003b578063eeb30fea14610097575b600080fd5b61007d6004803603602081101561005157600080fd5b81019080803573ffffffffffffffffffffffffffffffffffffffff1690602001909291905050506100e1565b604051808215151515815260200191505060405180910390f35b61009f6102e9565b604051808273ffffffffffffffffffffffffffffffffffffffff1673ffffffffffffffffffffffffffffffffffffffff16815260200191505060405180910390f35b60008060009054906101000a900473ffffffffffffffffffffffffffffffffffffffff1673ffffffffffffffffffffffffffffffffffffffff163373ffffffffffffffffffffffffffffffffffffffff1614610188576040517f08c379a00000000000000000000000000000000000000000000000000000000081526004018080602001828103825260228152602001806103136022913960400191505060405180910390fd5b600073ffffffffffffffffffffffffffffffffffffffff168273ffffffffffffffffffffffffffffffffffffffff16141561020e576040517f08c379a00000000000000000000000000000000000000000000000000000000081526004018080602001828103825260378152602001806103356037913960400191505060405180910390fd5b8173ffffffffffffffffffffffffffffffffffffffff166000809054906101000a900473ffffffffffffffffffffffffffffffffffffffff1673ffffffffffffffffffffffffffffffffffffffff163373ffffffffffffffffffffffffffffffffffffffff167f95a4124b32fadd40e6e63088992a62e3505e61d1683b783d03e575d7c1dfb96760405160405180910390a4816000806101000a81548173ffffffffffffffffffffffffffffffffffffffff021916908373ffffffffffffffffffffffffffffffffffffffff16021790555060019050919050565b60008060009054906101000a900473ffffffffffffffffffffffffffffffffffffffff1690509056fe4f6e6c79206f776e65722063616e2063616c6c20746869732066756e6374696f6e2e546865206e657720416c6963652063616e6e6f74206265207468652073616d6520617320746865206f726967696e616c20416c6963652ea265627a7a723158202b42e04a3a0f86c6ef7a4c97817cef12d6f67011cf0f001db895c7b9df98e25864736f6c63430005100032",
  "source": "pragma solidity ^0.5.12;\n\ncontract Ownable {\n\n    address private alice;\n\n    event LogNewOwner(address indexed sender, address indexed originalAlice, address indexed newAlice);\n\n    constructor() public {\n        alice = msg.sender;\n    }\n\n    modifier onlyAlice() {\n        require(\n            msg.sender == alice,\n            \"Only owner can call this function.\"\n        );\n        _;\n    }\n\n    function changeAlice(address payable _newAlice) public onlyAlice returns(bool success) {\n        require(_newAlice != address(0), \"The new Alice cannot be the same as the original Alice.\");\n        emit LogNewOwner(msg.sender, alice, _newAlice);\n        alice = _newAlice;\n        return true;\n\t}\n\n    function getAlice() public view returns (address) {\n        return alice;\n    }\n}",
  "sourcePath": "/home/boss/Programming/DAPPS/bootstrapReact-Splitter/contracts/Ownable.sol",
  "compiler": {
    "name": "solc",
    "version": "0.5.16+commit.9c3226ce.Emscripten.clang"
  },
  "schemaVersion": "3.0.22",
  "updatedAt": "2020-02-27T16:04:38.565Z",
  "devdoc": {
    "methods": {}
  },
  "userdoc": {
    "methods": {}
  }
}