{
  "contractName": "Pausable",
  "abi": [
    {
      "inputs": [],
      "payable": false,
      "stateMutability": "nonpayable",
      "type": "constructor"
    },
    {
      "anonymous": false,
      "inputs": [
        {
          "indexed": true,
          "internalType": "address",
          "name": "sender",
          "type": "address"
        },
        {
          "indexed": true,
          "internalType": "address",
          "name": "originalAlice",
          "type": "address"
        },
        {
          "indexed": true,
          "internalType": "address",
          "name": "newAlice",
          "type": "address"
        }
      ],
      "name": "LogNewOwner",
      "type": "event"
    },
    {
      "anonymous": false,
      "inputs": [
        {
          "indexed": true,
          "internalType": "address",
          "name": "sender",
          "type": "address"
        }
      ],
      "name": "LogPaused",
      "type": "event"
    },
    {
      "anonymous": false,
      "inputs": [
        {
          "indexed": true,
          "internalType": "address",
          "name": "sender",
          "type": "address"
        }
      ],
      "name": "LogResumed",
      "type": "event"
    },
    {
      "constant": false,
      "inputs": [
        {
          "internalType": "address payable",
          "name": "_newAlice",
          "type": "address"
        }
      ],
      "name": "changeAlice",
      "outputs": [
        {
          "internalType": "bool",
          "name": "success",
          "type": "bool"
        }
      ],
      "payable": false,
      "stateMutability": "nonpayable",
      "type": "function"
    },
    {
      "constant": true,
      "inputs": [],
      "name": "getAlice",
      "outputs": [
        {
          "internalType": "address",
          "name": "",
          "type": "address"
        }
      ],
      "payable": false,
      "stateMutability": "view",
      "type": "function"
    },
    {
      "constant": false,
      "inputs": [],
      "name": "pause",
      "outputs": [],
      "payable": false,
      "stateMutability": "nonpayable",
      "type": "function"
    },
    {
      "constant": false,
      "inputs": [],
      "name": "resume",
      "outputs": [],
      "payable": false,
      "stateMutability": "nonpayable",
      "type": "function"
    }
  ],
  "bytecode": "0x608060405234801561001057600080fd5b50336000806101000a81548173ffffffffffffffffffffffffffffffffffffffff021916908373ffffffffffffffffffffffffffffffffffffffff16021790555060008060146101000a81548160ff0219169083151502179055506106dc8061007a6000396000f3fe608060405234801561001057600080fd5b506004361061004c5760003560e01c8063046f7da2146100515780638456cb591461005b578063bd11448814610065578063eeb30fea146100c1575b600080fd5b61005961010b565b005b610063610274565b005b6100a76004803603602081101561007b57600080fd5b81019080803573ffffffffffffffffffffffffffffffffffffffff1690602001909291905050506103fc565b604051808215151515815260200191505060405180910390f35b6100c9610604565b604051808273ffffffffffffffffffffffffffffffffffffffff1673ffffffffffffffffffffffffffffffffffffffff16815260200191505060405180910390f35b6000809054906101000a900473ffffffffffffffffffffffffffffffffffffffff1673ffffffffffffffffffffffffffffffffffffffff163373ffffffffffffffffffffffffffffffffffffffff16146101b0576040517f08c379a000000000000000000000000000000000000000000000000000000000815260040180806020018281038252602281526020018061062e6022913960400191505060405180910390fd5b600060149054906101000a900460ff16610215576040517f08c379a00000000000000000000000000000000000000000000000000000000081526004018080602001828103825260218152602001806106506021913960400191505060405180910390fd5b60008060146101000a81548160ff0219169083151502179055503373ffffffffffffffffffffffffffffffffffffffff167f29560ba70e3537fccc61029db8de08e30408a3f131625765c51e3e972a7867ad60405160405180910390a2565b6000809054906101000a900473ffffffffffffffffffffffffffffffffffffffff1673ffffffffffffffffffffffffffffffffffffffff163373ffffffffffffffffffffffffffffffffffffffff1614610319576040517f08c379a000000000000000000000000000000000000000000000000000000000815260040180806020018281038252602281526020018061062e6022913960400191505060405180910390fd5b600060149054906101000a900460ff161561039c576040517f08c379a00000000000000000000000000000000000000000000000000000000081526004018080602001828103825260208152602001807f54686520636f6e74726163742069732063757272656e746c792070617573656481525060200191505060405180910390fd5b6001600060146101000a81548160ff0219169083151502179055503373ffffffffffffffffffffffffffffffffffffffff167fce3af5a3fdaee3c4327c1c434ea1d2186d7a9495f005d2a876dca182bd14571460405160405180910390a2565b60008060009054906101000a900473ffffffffffffffffffffffffffffffffffffffff1673ffffffffffffffffffffffffffffffffffffffff163373ffffffffffffffffffffffffffffffffffffffff16146104a3576040517f08c379a000000000000000000000000000000000000000000000000000000000815260040180806020018281038252602281526020018061062e6022913960400191505060405180910390fd5b600073ffffffffffffffffffffffffffffffffffffffff168273ffffffffffffffffffffffffffffffffffffffff161415610529576040517f08c379a00000000000000000000000000000000000000000000000000000000081526004018080602001828103825260378152602001806106716037913960400191505060405180910390fd5b8173ffffffffffffffffffffffffffffffffffffffff166000809054906101000a900473ffffffffffffffffffffffffffffffffffffffff1673ffffffffffffffffffffffffffffffffffffffff163373ffffffffffffffffffffffffffffffffffffffff167f95a4124b32fadd40e6e63088992a62e3505e61d1683b783d03e575d7c1dfb96760405160405180910390a4816000806101000a81548173ffffffffffffffffffffffffffffffffffffffff021916908373ffffffffffffffffffffffffffffffffffffffff16021790555060019050919050565b60008060009054906101000a900473ffffffffffffffffffffffffffffffffffffffff1690509056fe4f6e6c79206f776e65722063616e2063616c6c20746869732066756e6374696f6e2e54686520636f6e74726163742069732063757272656e746c792072756e6e696e67546865206e657720416c6963652063616e6e6f74206265207468652073616d6520617320746865206f726967696e616c20416c6963652ea265627a7a723158204cdab1adfd30cdb2346431a8984c71d1ac79433385e07c8d0ca278b92285bb0264736f6c63430005100032",
  "source": "pragma solidity ^0.5.12;\n\nimport \"./Ownable.sol\";\n\ncontract Pausable is Ownable {\n\n    event LogPaused(address indexed sender);\n    event LogResumed(address indexed sender);\n\n    bool private _isPaused;\n\n    constructor() public {\n        _isPaused = false;\n    }\n\n    modifier currentlyRunning() {\n        require(!_isPaused, \"The contract is currently paused\");\n        _;\n    }\n\n    modifier currentlyPaused() {\n        require(_isPaused, \"The contract is currently running\");\n        _;\n    }\n\n    function pause() public onlyAlice currentlyRunning {\n        _isPaused = true;\n        emit LogPaused(msg.sender);\n    }\n\n    function resume() public onlyAlice currentlyPaused {\n        _isPaused = false;\n        emit LogResumed(msg.sender);\n    }\n}",
  "sourcePath": "/home/boss/Programming/DAPPS/bootstrapReact-Splitter/contracts/Pausable.sol",
  "compiler": {
    "name": "solc",
    "version": "0.5.16+commit.9c3226ce.Emscripten.clang"
  },
  "schemaVersion": "3.0.22",
  "updatedAt": "2020-02-27T16:04:38.565Z",
  "devdoc": {
    "methods": {}
  },
  "userdoc": {
    "methods": {}
  }
}