{
  "contractName": "Splitter",
  "abi": [
    {
      "inputs": [],
      "payable": false,
      "stateMutability": "nonpayable",
      "type": "constructor"
    },
    {
      "anonymous": false,
      "inputs": [
        {
          "indexed": true,
          "internalType": "address",
          "name": "sender",
          "type": "address"
        },
        {
          "indexed": true,
          "internalType": "address",
          "name": "originalAlice",
          "type": "address"
        },
        {
          "indexed": true,
          "internalType": "address",
          "name": "newAlice",
          "type": "address"
        }
      ],
      "name": "LogNewOwner",
      "type": "event"
    },
    {
      "anonymous": false,
      "inputs": [
        {
          "indexed": true,
          "internalType": "address",
          "name": "sender",
          "type": "address"
        }
      ],
      "name": "LogPaused",
      "type": "event"
    },
    {
      "anonymous": false,
      "inputs": [
        {
          "indexed": true,
          "internalType": "address",
          "name": "sender",
          "type": "address"
        }
      ],
      "name": "LogResumed",
      "type": "event"
    },
    {
      "anonymous": false,
      "inputs": [
        {
          "indexed": true,
          "internalType": "address",
          "name": "from",
          "type": "address"
        },
        {
          "indexed": true,
          "internalType": "address",
          "name": "bob",
          "type": "address"
        },
        {
          "indexed": true,
          "internalType": "address",
          "name": "carol",
          "type": "address"
        },
        {
          "indexed": false,
          "internalType": "uint256",
          "name": "amount",
          "type": "uint256"
        }
      ],
      "name": "LogSplitBalance",
      "type": "event"
    },
    {
      "anonymous": false,
      "inputs": [
        {
          "indexed": true,
          "internalType": "address",
          "name": "from",
          "type": "address"
        },
        {
          "indexed": false,
          "internalType": "uint256",
          "name": "amount",
          "type": "uint256"
        }
      ],
      "name": "LogWithdraw",
      "type": "event"
    },
    {
      "payable": false,
      "stateMutability": "nonpayable",
      "type": "fallback"
    },
    {
      "constant": false,
      "inputs": [
        {
          "internalType": "address payable",
          "name": "_newAlice",
          "type": "address"
        }
      ],
      "name": "changeAlice",
      "outputs": [
        {
          "internalType": "bool",
          "name": "success",
          "type": "bool"
        }
      ],
      "payable": false,
      "stateMutability": "nonpayable",
      "type": "function"
    },
    {
      "constant": true,
      "inputs": [],
      "name": "getAlice",
      "outputs": [
        {
          "internalType": "address",
          "name": "",
          "type": "address"
        }
      ],
      "payable": false,
      "stateMutability": "view",
      "type": "function"
    },
    {
      "constant": true,
      "inputs": [
        {
          "internalType": "address",
          "name": "",
          "type": "address"
        }
      ],
      "name": "owedBalances",
      "outputs": [
        {
          "internalType": "uint256",
          "name": "",
          "type": "uint256"
        }
      ],
      "payable": false,
      "stateMutability": "view",
      "type": "function"
    },
    {
      "constant": false,
      "inputs": [],
      "name": "pause",
      "outputs": [],
      "payable": false,
      "stateMutability": "nonpayable",
      "type": "function"
    },
    {
      "constant": false,
      "inputs": [],
      "name": "resume",
      "outputs": [],
      "payable": false,
      "stateMutability": "nonpayable",
      "type": "function"
    },
    {
      "constant": false,
      "inputs": [
        {
          "internalType": "address",
          "name": "bob",
          "type": "address"
        },
        {
          "internalType": "address",
          "name": "carol",
          "type": "address"
        }
      ],
      "name": "split",
      "outputs": [],
      "payable": true,
      "stateMutability": "payable",
      "type": "function"
    },
    {
      "constant": false,
      "inputs": [],
      "name": "withdraw",
      "outputs": [
        {
          "internalType": "bool",
          "name": "success",
          "type": "bool"
        }
      ],
      "payable": false,
      "stateMutability": "nonpayable",
      "type": "function"
    }
  ],
  "bytecode": "0x608060405234801561001057600080fd5b50336000806101000a81548173ffffffffffffffffffffffffffffffffffffffff021916908373ffffffffffffffffffffffffffffffffffffffff16021790555060008060146101000a81548160ff021916908315150217905550610f9b8061007a6000396000f3fe6080604052600436106100705760003560e01c80638456cb591161004e5780638456cb591461019557806384598620146101ac578063bd11448814610211578063eeb30fea1461027a57610070565b8063046f7da2146100eb5780630f2c9329146101025780633ccfd60b14610166575b34801561007c57600080fd5b506040517f08c379a00000000000000000000000000000000000000000000000000000000081526004018080602001828103825260128152602001807f436c65616e20796f75722061637420757021000000000000000000000000000081525060200191505060405180910390fd5b3480156100f757600080fd5b506101006102d1565b005b6101646004803603604081101561011857600080fd5b81019080803573ffffffffffffffffffffffffffffffffffffffff169060200190929190803573ffffffffffffffffffffffffffffffffffffffff16906020019092919050505061043a565b005b34801561017257600080fd5b5061017b6107d9565b604051808215151515815260200191505060405180910390f35b3480156101a157600080fd5b506101aa610983565b005b3480156101b857600080fd5b506101fb600480360360208110156101cf57600080fd5b81019080803573ffffffffffffffffffffffffffffffffffffffff169060200190929190505050610b0b565b6040518082815260200191505060405180910390f35b34801561021d57600080fd5b506102606004803603602081101561023457600080fd5b81019080803573ffffffffffffffffffffffffffffffffffffffff169060200190929190505050610b23565b604051808215151515815260200191505060405180910390f35b34801561028657600080fd5b5061028f610d2b565b604051808273ffffffffffffffffffffffffffffffffffffffff1673ffffffffffffffffffffffffffffffffffffffff16815260200191505060405180910390f35b6000809054906101000a900473ffffffffffffffffffffffffffffffffffffffff1673ffffffffffffffffffffffffffffffffffffffff163373ffffffffffffffffffffffffffffffffffffffff1614610376576040517f08c379a0000000000000000000000000000000000000000000000000000000008152600401808060200182810382526022815260200180610eed6022913960400191505060405180910390fd5b600060149054906101000a900460ff166103db576040517f08c379a0000000000000000000000000000000000000000000000000000000008152600401808060200182810382526021815260200180610f0f6021913960400191505060405180910390fd5b60008060146101000a81548160ff0219169083151502179055503373ffffffffffffffffffffffffffffffffffffffff167f29560ba70e3537fccc61029db8de08e30408a3f131625765c51e3e972a7867ad60405160405180910390a2565b600060149054906101000a900460ff16156104bd576040517f08c379a00000000000000000000000000000000000000000000000000000000081526004018080602001828103825260208152602001807f54686520636f6e74726163742069732063757272656e746c792070617573656481525060200191505060405180910390fd5b6000341180156104f957508073ffffffffffffffffffffffffffffffffffffffff168273ffffffffffffffffffffffffffffffffffffffff1614155b61056b576040517f08c379a00000000000000000000000000000000000000000000000000000000081526004018080602001828103825260208152602001807f73706c69742072656a65637465642c20706c656173652074727920616761696e81525060200191505060405180910390fd5b600034905060006002348161057c57fe5b0614610618576105d460018060003373ffffffffffffffffffffffffffffffffffffffff1673ffffffffffffffffffffffffffffffffffffffff16815260200190815260200160002054610d5490919063ffffffff16565b600160003373ffffffffffffffffffffffffffffffffffffffff1673ffffffffffffffffffffffffffffffffffffffff168152602001908152602001600020819055505b61062c600234610ddc90919063ffffffff16565b905061068081600160008673ffffffffffffffffffffffffffffffffffffffff1673ffffffffffffffffffffffffffffffffffffffff16815260200190815260200160002054610d5490919063ffffffff16565b600160008573ffffffffffffffffffffffffffffffffffffffff1673ffffffffffffffffffffffffffffffffffffffff1681526020019081526020016000208190555061071581600160008573ffffffffffffffffffffffffffffffffffffffff1673ffffffffffffffffffffffffffffffffffffffff16815260200190815260200160002054610d5490919063ffffffff16565b600160008473ffffffffffffffffffffffffffffffffffffffff1673ffffffffffffffffffffffffffffffffffffffff168152602001908152602001600020819055508173ffffffffffffffffffffffffffffffffffffffff168373ffffffffffffffffffffffffffffffffffffffff163373ffffffffffffffffffffffffffffffffffffffff167fd5fabb6635fd40b7e99fd8bd1f46d4b67b3bb648997b9d4124cab702275c0456346040518082815260200191505060405180910390a4505050565b60008060149054906101000a900460ff161561085d576040517f08c379a00000000000000000000000000000000000000000000000000000000081526004018080602001828103825260208152602001807f54686520636f6e74726163742069732063757272656e746c792070617573656481525060200191505060405180910390fd5b6000600160003373ffffffffffffffffffffffffffffffffffffffff1673ffffffffffffffffffffffffffffffffffffffff1681526020019081526020016000205490506000600160003373ffffffffffffffffffffffffffffffffffffffff1673ffffffffffffffffffffffffffffffffffffffff168152602001908152602001600020819055503373ffffffffffffffffffffffffffffffffffffffff167f4ce7033d118120e254016dccf195288400b28fc8936425acd5f17ce2df3ab708826040518082815260200191505060405180910390a23373ffffffffffffffffffffffffffffffffffffffff166108fc829081150290604051600060405180830381858888f1935050505015801561097a573d6000803e3d6000fd5b50600191505090565b6000809054906101000a900473ffffffffffffffffffffffffffffffffffffffff1673ffffffffffffffffffffffffffffffffffffffff163373ffffffffffffffffffffffffffffffffffffffff1614610a28576040517f08c379a0000000000000000000000000000000000000000000000000000000008152600401808060200182810382526022815260200180610eed6022913960400191505060405180910390fd5b600060149054906101000a900460ff1615610aab576040517f08c379a00000000000000000000000000000000000000000000000000000000081526004018080602001828103825260208152602001807f54686520636f6e74726163742069732063757272656e746c792070617573656481525060200191505060405180910390fd5b6001600060146101000a81548160ff0219169083151502179055503373ffffffffffffffffffffffffffffffffffffffff167fce3af5a3fdaee3c4327c1c434ea1d2186d7a9495f005d2a876dca182bd14571460405160405180910390a2565b60016020528060005260406000206000915090505481565b60008060009054906101000a900473ffffffffffffffffffffffffffffffffffffffff1673ffffffffffffffffffffffffffffffffffffffff163373ffffffffffffffffffffffffffffffffffffffff1614610bca576040517f08c379a0000000000000000000000000000000000000000000000000000000008152600401808060200182810382526022815260200180610eed6022913960400191505060405180910390fd5b600073ffffffffffffffffffffffffffffffffffffffff168273ffffffffffffffffffffffffffffffffffffffff161415610c50576040517f08c379a0000000000000000000000000000000000000000000000000000000008152600401808060200182810382526037815260200180610f306037913960400191505060405180910390fd5b8173ffffffffffffffffffffffffffffffffffffffff166000809054906101000a900473ffffffffffffffffffffffffffffffffffffffff1673ffffffffffffffffffffffffffffffffffffffff163373ffffffffffffffffffffffffffffffffffffffff167f95a4124b32fadd40e6e63088992a62e3505e61d1683b783d03e575d7c1dfb96760405160405180910390a4816000806101000a81548173ffffffffffffffffffffffffffffffffffffffff021916908373ffffffffffffffffffffffffffffffffffffffff16021790555060019050919050565b60008060009054906101000a900473ffffffffffffffffffffffffffffffffffffffff16905090565b600080828401905083811015610dd2576040517f08c379a000000000000000000000000000000000000000000000000000000000815260040180806020018281038252601b8152602001807f536166654d6174683a206164646974696f6e206f766572666c6f77000000000081525060200191505060405180910390fd5b8091505092915050565b6000610e1e83836040518060400160405280601a81526020017f536166654d6174683a206469766973696f6e206279207a65726f000000000000815250610e26565b905092915050565b60008083118290610ed2576040517f08c379a00000000000000000000000000000000000000000000000000000000081526004018080602001828103825283818151815260200191508051906020019080838360005b83811015610e97578082015181840152602081019050610e7c565b50505050905090810190601f168015610ec45780820380516001836020036101000a031916815260200191505b509250505060405180910390fd5b506000838581610ede57fe5b04905080915050939250505056fe4f6e6c79206f776e65722063616e2063616c6c20746869732066756e6374696f6e2e54686520636f6e74726163742069732063757272656e746c792072756e6e696e67546865206e657720416c6963652063616e6e6f74206265207468652073616d6520617320746865206f726967696e616c20416c6963652ea265627a7a72315820220d54362ac603f0d09aa0a59fa3afdf050c61cfb6c8166391426ccb6371084f64736f6c63430005100032",
  "source": "pragma solidity ^0.5.12;\n\nimport \"@openzeppelin/contracts/math/SafeMath.sol\";\nimport \"./Pausable.sol\";\n\ncontract Splitter is Pausable {\n\tusing SafeMath for uint;\n\n\tmapping (address => uint) public owedBalances;\n\n\tevent LogSplitBalance(address indexed from, address indexed bob, address indexed carol, uint amount);\n\tevent LogWithdraw(address indexed from, uint amount);\n\n\tconstructor() public {}\n\n\t// Any ether sent inproperly to the contract is reverted, sent back.\n\tfunction () external {\n\t\trevert(\"Clean your act up!\");\n\t}\n\n\tfunction split(address bob, address carol) public payable currentlyRunning {\n\t\t// Security checks\n\t\trequire(msg.value > 0 && bob != carol, \"split rejected, please try again\");\n\n\t\tuint balance = msg.value;\n\t\t// IF theirs a remainder, refund it back to the sender\n\t\tif (msg.value % 2 != 0) {\n\t\t\towedBalances[msg.sender] = owedBalances[msg.sender].add(1);\n\t\t}\n\n\t\t// Split funds\n\t\tbalance = msg.value.div(2);\n\t\t// Allocates funds to bob & carol.\n\t\towedBalances[bob] = owedBalances[bob].add(balance);\n\t\towedBalances[carol] = owedBalances[carol].add(balance);\n\t\temit LogSplitBalance(msg.sender, bob, carol, msg.value);\n\t}\n\n\t// Only bob and carol can each withdraw their share of the split amount.\n\tfunction withdraw() public currentlyRunning returns(bool success) {\n\t\tuint splitBalance = owedBalances[msg.sender];\n\t\towedBalances[msg.sender] = 0;\n\t\temit LogWithdraw(msg.sender, splitBalance);\n\t\tmsg.sender.transfer(splitBalance);\n\t\treturn true;\n\t}\n}",
  "sourcePath": "/home/boss/Programming/DAPPS/Splitter/contracts/Splitter.sol",
  "compiler": {
    "name": "solc",
    "version": "0.5.16+commit.9c3226ce.Emscripten.clang"
  },
  "schemaVersion": "3.0.22",
  "updatedAt": "2020-02-12T16:05:30.597Z",
  "networkType": "ethereum",
  "devdoc": {
    "methods": {}
  },
  "userdoc": {
    "methods": {}
  }
}